{
  "_format": "hh-sol-artifact-1",
  "contractName": "SushiWallet",
  "sourceName": "contracts/SushiWallet.sol",
  "abi": [
    {
      "inputs": [
        {
          "internalType": "address",
          "name": "_router",
          "type": "address"
        },
        {
          "internalType": "address",
          "name": "_masterchef",
          "type": "address"
        },
        {
          "internalType": "address",
          "name": "_masterchefV2",
          "type": "address"
        }
      ],
      "stateMutability": "nonpayable",
      "type": "constructor"
    },
    {
      "anonymous": false,
      "inputs": [
        {
          "indexed": true,
          "internalType": "address",
          "name": "lpToken",
          "type": "address"
        },
        {
          "indexed": true,
          "internalType": "uint256",
          "name": "amountA",
          "type": "uint256"
        },
        {
          "indexed": true,
          "internalType": "uint256",
          "name": "amountB",
          "type": "uint256"
        }
      ],
      "name": "LiquidityAdded",
      "type": "event"
    },
    {
      "anonymous": false,
      "inputs": [
        {
          "indexed": true,
          "internalType": "address",
          "name": "lpToken",
          "type": "address"
        },
        {
          "indexed": true,
          "internalType": "uint256",
          "name": "amountA",
          "type": "uint256"
        },
        {
          "indexed": true,
          "internalType": "uint256",
          "name": "amountB",
          "type": "uint256"
        }
      ],
      "name": "LiquidityRemoved",
      "type": "event"
    },
    {
      "anonymous": false,
      "inputs": [
        {
          "indexed": true,
          "internalType": "address",
          "name": "masterchef",
          "type": "address"
        }
      ],
      "name": "NewMasterchef",
      "type": "event"
    },
    {
      "anonymous": false,
      "inputs": [
        {
          "indexed": true,
          "internalType": "address",
          "name": "masterchefV2",
          "type": "address"
        }
      ],
      "name": "NewMasterchefV2",
      "type": "event"
    },
    {
      "anonymous": false,
      "inputs": [
        {
          "indexed": true,
          "internalType": "address",
          "name": "router",
          "type": "address"
        }
      ],
      "name": "NewRouter",
      "type": "event"
    },
    {
      "anonymous": false,
      "inputs": [
        {
          "indexed": true,
          "internalType": "address",
          "name": "previousOwner",
          "type": "address"
        },
        {
          "indexed": true,
          "internalType": "address",
          "name": "newOwner",
          "type": "address"
        }
      ],
      "name": "OwnershipTransferred",
      "type": "event"
    },
    {
      "anonymous": false,
      "inputs": [
        {
          "indexed": true,
          "internalType": "address",
          "name": "token",
          "type": "address"
        },
        {
          "indexed": true,
          "internalType": "uint256",
          "name": "amount",
          "type": "uint256"
        }
      ],
      "name": "Withdraw",
      "type": "event"
    },
    {
      "anonymous": false,
      "inputs": [
        {
          "indexed": true,
          "internalType": "address",
          "name": "tokenEarned",
          "type": "address"
        }
      ],
      "name": "harvestedRewards",
      "type": "event"
    },
    {
      "inputs": [
        {
          "internalType": "address",
          "name": "tokenA",
          "type": "address"
        },
        {
          "internalType": "address",
          "name": "tokenB",
          "type": "address"
        },
        {
          "internalType": "uint256",
          "name": "amountA",
          "type": "uint256"
        },
        {
          "internalType": "uint256",
          "name": "amountB",
          "type": "uint256"
        },
        {
          "internalType": "uint256",
          "name": "slippage",
          "type": "uint256"
        },
        {
          "internalType": "uint256",
          "name": "_pid",
          "type": "uint256"
        },
        {
          "internalType": "bool",
          "name": "isMasterchefV2",
          "type": "bool"
        }
      ],
      "name": "addLiquidity",
      "outputs": [],
      "stateMutability": "nonpayable",
      "type": "function"
    },
    {
      "inputs": [
        {
          "internalType": "address",
          "name": "_lpToken",
          "type": "address"
        },
        {
          "internalType": "bool",
          "name": "isMasterchefV2",
          "type": "bool"
        }
      ],
      "name": "emergencyWithdraw",
      "outputs": [],
      "stateMutability": "nonpayable",
      "type": "function"
    },
    {
      "inputs": [
        {
          "internalType": "address",
          "name": "_token",
          "type": "address"
        }
      ],
      "name": "getPID",
      "outputs": [
        {
          "internalType": "uint256",
          "name": "_pid",
          "type": "uint256"
        }
      ],
      "stateMutability": "view",
      "type": "function"
    },
    {
      "inputs": [
        {
          "internalType": "address",
          "name": "_lpToken",
          "type": "address"
        },
        {
          "internalType": "bool",
          "name": "isMasterchefV2",
          "type": "bool"
        }
      ],
      "name": "harvestRewards",
      "outputs": [],
      "stateMutability": "nonpayable",
      "type": "function"
    },
    {
      "inputs": [],
      "name": "masterchef",
      "outputs": [
        {
          "internalType": "contract IMasterChef",
          "name": "",
          "type": "address"
        }
      ],
      "stateMutability": "view",
      "type": "function"
    },
    {
      "inputs": [],
      "name": "masterchefV2",
      "outputs": [
        {
          "internalType": "contract IMiniChefV2",
          "name": "",
          "type": "address"
        }
      ],
      "stateMutability": "view",
      "type": "function"
    },
    {
      "inputs": [],
      "name": "owner",
      "outputs": [
        {
          "internalType": "address",
          "name": "",
          "type": "address"
        }
      ],
      "stateMutability": "view",
      "type": "function"
    },
    {
      "inputs": [
        {
          "internalType": "address",
          "name": "_lpToken",
          "type": "address"
        },
        {
          "internalType": "uint256",
          "name": "_amount",
          "type": "uint256"
        },
        {
          "internalType": "uint256",
          "name": "_pid",
          "type": "uint256"
        },
        {
          "internalType": "bool",
          "name": "isMasterchefV2",
          "type": "bool"
        }
      ],
      "name": "removeLiquidity",
      "outputs": [],
      "stateMutability": "nonpayable",
      "type": "function"
    },
    {
      "inputs": [],
      "name": "renounceOwnership",
      "outputs": [],
      "stateMutability": "nonpayable",
      "type": "function"
    },
    {
      "inputs": [],
      "name": "router",
      "outputs": [
        {
          "internalType": "contract IUniswapV2Router02",
          "name": "",
          "type": "address"
        }
      ],
      "stateMutability": "view",
      "type": "function"
    },
    {
      "inputs": [
        {
          "internalType": "address",
          "name": "_newMasterchef",
          "type": "address"
        }
      ],
      "name": "setMasterchef",
      "outputs": [],
      "stateMutability": "nonpayable",
      "type": "function"
    },
    {
      "inputs": [
        {
          "internalType": "address",
          "name": "_newMasterchefV2",
          "type": "address"
        }
      ],
      "name": "setMasterchefV2",
      "outputs": [],
      "stateMutability": "nonpayable",
      "type": "function"
    },
    {
      "inputs": [
        {
          "internalType": "address",
          "name": "_newRouter",
          "type": "address"
        }
      ],
      "name": "setRouter",
      "outputs": [],
      "stateMutability": "nonpayable",
      "type": "function"
    },
    {
      "inputs": [
        {
          "internalType": "address",
          "name": "newOwner",
          "type": "address"
        }
      ],
      "name": "transferOwnership",
      "outputs": [],
      "stateMutability": "nonpayable",
      "type": "function"
    },
    {
      "inputs": [
        {
          "internalType": "address",
          "name": "_token",
          "type": "address"
        },
        {
          "internalType": "uint256",
          "name": "_amount",
          "type": "uint256"
        }
      ],
      "name": "withdraw",
      "outputs": [],
      "stateMutability": "nonpayable",
      "type": "function"
    }
  ],
  "bytecode": "0x60806040523480156200001157600080fd5b5060405162002df738038062002df7833981810160405281019062000037919062000259565b620000576200004b6200012360201b60201c565b6200012b60201b60201c565b82600160006101000a81548173ffffffffffffffffffffffffffffffffffffffff021916908373ffffffffffffffffffffffffffffffffffffffff16021790555081600260006101000a81548173ffffffffffffffffffffffffffffffffffffffff021916908373ffffffffffffffffffffffffffffffffffffffff16021790555080600360006101000a81548173ffffffffffffffffffffffffffffffffffffffff021916908373ffffffffffffffffffffffffffffffffffffffff160217905550505050620002b5565b600033905090565b60008060009054906101000a900473ffffffffffffffffffffffffffffffffffffffff169050816000806101000a81548173ffffffffffffffffffffffffffffffffffffffff021916908373ffffffffffffffffffffffffffffffffffffffff1602179055508173ffffffffffffffffffffffffffffffffffffffff168173ffffffffffffffffffffffffffffffffffffffff167f8be0079c531659141344cd1fd0a4f28419497f9722a3daafe3b4186f6b6457e060405160405180910390a35050565b600080fd5b600073ffffffffffffffffffffffffffffffffffffffff82169050919050565b60006200022182620001f4565b9050919050565b620002338162000214565b81146200023f57600080fd5b50565b600081519050620002538162000228565b92915050565b600080600060608486031215620002755762000274620001ef565b5b6000620002858682870162000242565b9350506020620002988682870162000242565b9250506040620002ab8682870162000242565b9150509250925092565b612b3280620002c56000396000f3fe608060405234801561001057600080fd5b50600436106100f55760003560e01c8063b683450a11610097578063f3fef3a311610066578063f3fef3a314610234578063f69af4f914610250578063f887ea401461026c578063fb1db2781461028a576100f5565b8063b683450a146101ae578063c0d78655146101de578063cb528b52146101fa578063f2fde38b14610218576100f5565b80637565e905116100d35780637565e9051461013c5780638da5cb5b14610158578063933baa8614610176578063a270475c14610192576100f5565b80635b151018146100fa578063662aae0614610116578063715018a614610132575b600080fd5b610114600480360381019061010f9190611d91565b6102a8565b005b610130600480360381019061012b9190611e33565b610ced565b005b61013a610deb565b005b61015660048036038101906101519190611e60565b610dff565b005b6101606111bb565b60405161016d9190611ed6565b60405180910390f35b610190600480360381019061018b9190611e33565b6111e4565b005b6101ac60048036038101906101a79190611ef1565b6112e2565b005b6101c860048036038101906101c39190611e33565b611426565b6040516101d59190611f40565b60405180910390f35b6101f860048036038101906101f39190611e33565b611660565b005b61020261175e565b60405161020f9190611fba565b60405180910390f35b610232600480360381019061022d9190611e33565b611784565b005b61024e60048036038101906102499190611fd5565b611807565b005b61026a60048036038101906102659190611ef1565b611992565b005b610274611b20565b6040516102819190612036565b60405180910390f35b610292611b46565b60405161029f9190612072565b60405180910390f35b6102b0611b6c565b8573ffffffffffffffffffffffffffffffffffffffff168773ffffffffffffffffffffffffffffffffffffffff160361031e576040517f08c379a0000000000000000000000000000000000000000000000000000000008152600401610315906120ea565b60405180910390fd5b848773ffffffffffffffffffffffffffffffffffffffff166370a08231306040518263ffffffff1660e01b81526004016103589190611ed6565b602060405180830381865afa158015610375573d6000803e3d6000fd5b505050506040513d601f19601f82011682018060405250810190610399919061211f565b10156103da576040517f08c379a00000000000000000000000000000000000000000000000000000000081526004016103d190612198565b60405180910390fd5b838673ffffffffffffffffffffffffffffffffffffffff166370a08231306040518263ffffffff1660e01b81526004016104149190611ed6565b602060405180830381865afa158015610431573d6000803e3d6000fd5b505050506040513d601f19601f82011682018060405250810190610455919061211f565b1015610496576040517f08c379a000000000000000000000000000000000000000000000000000000000815260040161048d90612204565b60405180910390fd5b600083101580156104a8575060648311155b6104e7576040517f08c379a00000000000000000000000000000000000000000000000000000000081526004016104de90612270565b60405180910390fd5b8673ffffffffffffffffffffffffffffffffffffffff1663095ea7b3600160009054906101000a900473ffffffffffffffffffffffffffffffffffffffff16876040518363ffffffff1660e01b8152600401610544929190612290565b6020604051808303816000875af1158015610563573d6000803e3d6000fd5b505050506040513d601f19601f8201168201806040525081019061058791906122ce565b508573ffffffffffffffffffffffffffffffffffffffff1663095ea7b3600160009054906101000a900473ffffffffffffffffffffffffffffffffffffffff16866040518363ffffffff1660e01b81526004016105e5929190612290565b6020604051808303816000875af1158015610604573d6000803e3d6000fd5b505050506040513d601f19601f8201168201806040525081019061062891906122ce565b50600060648487610639919061232a565b610643919061239b565b8661064e91906123cc565b9050600060648587610660919061232a565b61066a919061239b565b8661067591906123cc565b9050600160009054906101000a900473ffffffffffffffffffffffffffffffffffffffff1673ffffffffffffffffffffffffffffffffffffffff1663e8e337008a8a8a8a878730426040518963ffffffff1660e01b81526004016106e0989796959493929190612400565b6060604051808303816000875af11580156106ff573d6000803e3d6000fd5b505050506040513d601f19601f82011682018060405250810190610723919061247e565b5050506000600160009054906101000a900473ffffffffffffffffffffffffffffffffffffffff1673ffffffffffffffffffffffffffffffffffffffff1663c45a01556040518163ffffffff1660e01b8152600401602060405180830381865afa158015610795573d6000803e3d6000fd5b505050506040513d601f19601f820116820180604052508101906107b991906124e6565b73ffffffffffffffffffffffffffffffffffffffff1663e6a439058b8b6040518363ffffffff1660e01b81526004016107f3929190612513565b602060405180830381865afa158015610810573d6000803e3d6000fd5b505050506040513d601f19601f8201168201806040525081019061083491906124e6565b90506000850361084a5761084781611426565b94505b8315610a79578073ffffffffffffffffffffffffffffffffffffffff1663095ea7b3600360009054906101000a900473ffffffffffffffffffffffffffffffffffffffff168373ffffffffffffffffffffffffffffffffffffffff166370a08231306040518263ffffffff1660e01b81526004016108c89190611ed6565b602060405180830381865afa1580156108e5573d6000803e3d6000fd5b505050506040513d601f19601f82011682018060405250810190610909919061211f565b6040518363ffffffff1660e01b8152600401610926929190612290565b6020604051808303816000875af1158015610945573d6000803e3d6000fd5b505050506040513d601f19601f8201168201806040525081019061096991906122ce565b50600360009054906101000a900473ffffffffffffffffffffffffffffffffffffffff1673ffffffffffffffffffffffffffffffffffffffff16638dbdbe6d868373ffffffffffffffffffffffffffffffffffffffff166370a08231306040518263ffffffff1660e01b81526004016109e29190611ed6565b602060405180830381865afa1580156109ff573d6000803e3d6000fd5b505050506040513d601f19601f82011682018060405250810190610a23919061211f565b306040518463ffffffff1660e01b8152600401610a429392919061253c565b600060405180830381600087803b158015610a5c57600080fd5b505af1158015610a70573d6000803e3d6000fd5b50505050610c9c565b8073ffffffffffffffffffffffffffffffffffffffff1663095ea7b3600260009054906101000a900473ffffffffffffffffffffffffffffffffffffffff168373ffffffffffffffffffffffffffffffffffffffff166370a08231306040518263ffffffff1660e01b8152600401610af19190611ed6565b602060405180830381865afa158015610b0e573d6000803e3d6000fd5b505050506040513d601f19601f82011682018060405250810190610b32919061211f565b6040518363ffffffff1660e01b8152600401610b4f929190612290565b6020604051808303816000875af1158015610b6e573d6000803e3d6000fd5b505050506040513d601f19601f82011682018060405250810190610b9291906122ce565b50600260009054906101000a900473ffffffffffffffffffffffffffffffffffffffff1673ffffffffffffffffffffffffffffffffffffffff1663e2bbb158868373ffffffffffffffffffffffffffffffffffffffff166370a08231306040518263ffffffff1660e01b8152600401610c0b9190611ed6565b602060405180830381865afa158015610c28573d6000803e3d6000fd5b505050506040513d601f19601f82011682018060405250810190610c4c919061211f565b6040518363ffffffff1660e01b8152600401610c69929190612573565b600060405180830381600087803b158015610c8357600080fd5b505af1158015610c97573d6000803e3d6000fd5b505050505b86888273ffffffffffffffffffffffffffffffffffffffff167fac1d76749e5447b7b16f5ab61447e1bd502f3bb4807af3b28e620d1700a6ee4560405160405180910390a450505050505050505050565b610cf5611b6c565b600073ffffffffffffffffffffffffffffffffffffffff168173ffffffffffffffffffffffffffffffffffffffff1603610d64576040517f08c379a0000000000000000000000000000000000000000000000000000000008152600401610d5b906125e8565b60405180910390fd5b80600360006101000a81548173ffffffffffffffffffffffffffffffffffffffff021916908373ffffffffffffffffffffffffffffffffffffffff1602179055508073ffffffffffffffffffffffffffffffffffffffff167f95b9c34d1dd9414c6c20449e8b0041adf665f4e18223444cf021e0c81c00f2d360405160405180910390a250565b610df3611b6c565b610dfd6000611bea565b565b610e07611b6c565b60008203610e1b57610e1884611426565b91505b8015610eb757600360009054906101000a900473ffffffffffffffffffffffffffffffffffffffff1673ffffffffffffffffffffffffffffffffffffffff1663d1abb9078385306040518463ffffffff1660e01b8152600401610e809392919061253c565b600060405180830381600087803b158015610e9a57600080fd5b505af1158015610eae573d6000803e3d6000fd5b50505050610f47565b600260009054906101000a900473ffffffffffffffffffffffffffffffffffffffff1673ffffffffffffffffffffffffffffffffffffffff1663441a3e7083856040518363ffffffff1660e01b8152600401610f14929190612573565b600060405180830381600087803b158015610f2e57600080fd5b505af1158015610f42573d6000803e3d6000fd5b505050505b8373ffffffffffffffffffffffffffffffffffffffff1663095ea7b3600160009054906101000a900473ffffffffffffffffffffffffffffffffffffffff16856040518363ffffffff1660e01b8152600401610fa4929190612290565b6020604051808303816000875af1158015610fc3573d6000803e3d6000fd5b505050506040513d601f19601f82011682018060405250810190610fe791906122ce565b50600160009054906101000a900473ffffffffffffffffffffffffffffffffffffffff1673ffffffffffffffffffffffffffffffffffffffff1663baa2abde8573ffffffffffffffffffffffffffffffffffffffff16630dfe16816040518163ffffffff1660e01b8152600401602060405180830381865afa158015611071573d6000803e3d6000fd5b505050506040513d601f19601f8201168201806040525081019061109591906124e6565b8673ffffffffffffffffffffffffffffffffffffffff1663d21220a76040518163ffffffff1660e01b8152600401602060405180830381865afa1580156110e0573d6000803e3d6000fd5b505050506040513d601f19601f8201168201806040525081019061110491906124e6565b8660008030426040518863ffffffff1660e01b815260040161112c9796959493929190612643565b60408051808303816000875af115801561114a573d6000803e3d6000fd5b505050506040513d601f19601f8201168201806040525081019061116e91906126b2565b505082838573ffffffffffffffffffffffffffffffffffffffff167f96cd817c6329656790ef8fba7675405193677d39619571282f5e21f3a98cd05960405160405180910390a450505050565b60008060009054906101000a900473ffffffffffffffffffffffffffffffffffffffff16905090565b6111ec611b6c565b600073ffffffffffffffffffffffffffffffffffffffff168173ffffffffffffffffffffffffffffffffffffffff160361125b576040517f08c379a0000000000000000000000000000000000000000000000000000000008152600401611252906125e8565b60405180910390fd5b80600260006101000a81548173ffffffffffffffffffffffffffffffffffffffff021916908373ffffffffffffffffffffffffffffffffffffffff1602179055508073ffffffffffffffffffffffffffffffffffffffff167fd6144892a99cf6d0596978c001f4304e40806183ad838b7ff0cc4b9bc9006d7060405160405180910390a250565b6112ea611b6c565b60006112f583611426565b9050811561139157600360009054906101000a900473ffffffffffffffffffffffffffffffffffffffff1673ffffffffffffffffffffffffffffffffffffffff16632f940c7082306040518363ffffffff1660e01b815260040161135a9291906126f2565b600060405180830381600087803b15801561137457600080fd5b505af1158015611388573d6000803e3d6000fd5b50505050611421565b600260009054906101000a900473ffffffffffffffffffffffffffffffffffffffff1673ffffffffffffffffffffffffffffffffffffffff16632f940c7082306040518363ffffffff1660e01b81526004016113ee9291906126f2565b600060405180830381600087803b15801561140857600080fd5b505af115801561141c573d6000803e3d6000fd5b505050505b505050565b60008073ffffffffffffffffffffffffffffffffffffffff168273ffffffffffffffffffffffffffffffffffffffff1603611496576040517f08c379a000000000000000000000000000000000000000000000000000000000815260040161148d906125e8565b60405180910390fd5b60005b600260009054906101000a900473ffffffffffffffffffffffffffffffffffffffff1673ffffffffffffffffffffffffffffffffffffffff1663081e3eda6040518163ffffffff1660e01b8152600401602060405180830381865afa158015611506573d6000803e3d6000fd5b505050506040513d601f19601f8201168201806040525081019061152a919061211f565b81101561161f578273ffffffffffffffffffffffffffffffffffffffff16600260009054906101000a900473ffffffffffffffffffffffffffffffffffffffff1673ffffffffffffffffffffffffffffffffffffffff16631526fe27836040518263ffffffff1660e01b81526004016115a39190611f40565b608060405180830381865afa1580156115c0573d6000803e3d6000fd5b505050506040513d601f19601f820116820180604052508101906115e49190612862565b6000015173ffffffffffffffffffffffffffffffffffffffff160361160c578091505061165b565b80806116179061288f565b915050611499565b506040517f08c379a000000000000000000000000000000000000000000000000000000000815260040161165290612949565b60405180910390fd5b919050565b611668611b6c565b600073ffffffffffffffffffffffffffffffffffffffff168173ffffffffffffffffffffffffffffffffffffffff16036116d7576040517f08c379a00000000000000000000000000000000000000000000000000000000081526004016116ce906125e8565b60405180910390fd5b80600160006101000a81548173ffffffffffffffffffffffffffffffffffffffff021916908373ffffffffffffffffffffffffffffffffffffffff1602179055508073ffffffffffffffffffffffffffffffffffffffff167f2fdb177122c61891fc6664601fb42c60f0e4de993f9032419a0392f210b51c4c60405160405180910390a250565b600360009054906101000a900473ffffffffffffffffffffffffffffffffffffffff1681565b61178c611b6c565b600073ffffffffffffffffffffffffffffffffffffffff168173ffffffffffffffffffffffffffffffffffffffff16036117fb576040517f08c379a00000000000000000000000000000000000000000000000000000000081526004016117f2906129db565b60405180910390fd5b61180481611bea565b50565b61180f611b6c565b8173ffffffffffffffffffffffffffffffffffffffff166370a08231306040518263ffffffff1660e01b81526004016118489190611ed6565b602060405180830381865afa158015611865573d6000803e3d6000fd5b505050506040513d601f19601f82011682018060405250810190611889919061211f565b8111156118cb576040517f08c379a00000000000000000000000000000000000000000000000000000000081526004016118c290612a47565b60405180910390fd5b8173ffffffffffffffffffffffffffffffffffffffff1663a9059cbb33836040518363ffffffff1660e01b8152600401611906929190612290565b6020604051808303816000875af1158015611925573d6000803e3d6000fd5b505050506040513d601f19601f8201168201806040525081019061194991906122ce565b50808273ffffffffffffffffffffffffffffffffffffffff167f884edad9ce6fa2440d8a54cc123490eb96d2768479d49ff9c7366125a942436460405160405180910390a35050565b61199a611b6c565b60006119a583611426565b90506001151582151503611a4757600360009054906101000a900473ffffffffffffffffffffffffffffffffffffffff1673ffffffffffffffffffffffffffffffffffffffff166318fccc7682306040518363ffffffff1660e01b8152600401611a109291906126f2565b600060405180830381600087803b158015611a2a57600080fd5b505af1158015611a3e573d6000803e3d6000fd5b50505050611ad8565b600260009054906101000a900473ffffffffffffffffffffffffffffffffffffffff1673ffffffffffffffffffffffffffffffffffffffff1663e2bbb1588260006040518363ffffffff1660e01b8152600401611aa5929190612a67565b600060405180830381600087803b158015611abf57600080fd5b505af1158015611ad3573d6000803e3d6000fd5b505050505b8273ffffffffffffffffffffffffffffffffffffffff167fbd6bf500fcc97501a9f23c83ea223b6cf53c723b963a7ca5b051d1b01bd5fd0a60405160405180910390a2505050565b600160009054906101000a900473ffffffffffffffffffffffffffffffffffffffff1681565b600260009054906101000a900473ffffffffffffffffffffffffffffffffffffffff1681565b611b74611cae565b73ffffffffffffffffffffffffffffffffffffffff16611b926111bb565b73ffffffffffffffffffffffffffffffffffffffff1614611be8576040517f08c379a0000000000000000000000000000000000000000000000000000000008152600401611bdf90612adc565b60405180910390fd5b565b60008060009054906101000a900473ffffffffffffffffffffffffffffffffffffffff169050816000806101000a81548173ffffffffffffffffffffffffffffffffffffffff021916908373ffffffffffffffffffffffffffffffffffffffff1602179055508173ffffffffffffffffffffffffffffffffffffffff168173ffffffffffffffffffffffffffffffffffffffff167f8be0079c531659141344cd1fd0a4f28419497f9722a3daafe3b4186f6b6457e060405160405180910390a35050565b600033905090565b6000604051905090565b600080fd5b600073ffffffffffffffffffffffffffffffffffffffff82169050919050565b6000611cf082611cc5565b9050919050565b611d0081611ce5565b8114611d0b57600080fd5b50565b600081359050611d1d81611cf7565b92915050565b6000819050919050565b611d3681611d23565b8114611d4157600080fd5b50565b600081359050611d5381611d2d565b92915050565b60008115159050919050565b611d6e81611d59565b8114611d7957600080fd5b50565b600081359050611d8b81611d65565b92915050565b600080600080600080600060e0888a031215611db057611daf611cc0565b5b6000611dbe8a828b01611d0e565b9750506020611dcf8a828b01611d0e565b9650506040611de08a828b01611d44565b9550506060611df18a828b01611d44565b9450506080611e028a828b01611d44565b93505060a0611e138a828b01611d44565b92505060c0611e248a828b01611d7c565b91505092959891949750929550565b600060208284031215611e4957611e48611cc0565b5b6000611e5784828501611d0e565b91505092915050565b60008060008060808587031215611e7a57611e79611cc0565b5b6000611e8887828801611d0e565b9450506020611e9987828801611d44565b9350506040611eaa87828801611d44565b9250506060611ebb87828801611d7c565b91505092959194509250565b611ed081611ce5565b82525050565b6000602082019050611eeb6000830184611ec7565b92915050565b60008060408385031215611f0857611f07611cc0565b5b6000611f1685828601611d0e565b9250506020611f2785828601611d7c565b9150509250929050565b611f3a81611d23565b82525050565b6000602082019050611f556000830184611f31565b92915050565b6000819050919050565b6000611f80611f7b611f7684611cc5565b611f5b565b611cc5565b9050919050565b6000611f9282611f65565b9050919050565b6000611fa482611f87565b9050919050565b611fb481611f99565b82525050565b6000602082019050611fcf6000830184611fab565b92915050565b60008060408385031215611fec57611feb611cc0565b5b6000611ffa85828601611d0e565b925050602061200b85828601611d44565b9150509250929050565b600061202082611f87565b9050919050565b61203081612015565b82525050565b600060208201905061204b6000830184612027565b92915050565b600061205c82611f87565b9050919050565b61206c81612051565b82525050565b60006020820190506120876000830184612063565b92915050565b600082825260208201905092915050565b7f4572726f723a20544f4b454e2041203d3d20544f4b454e204200000000000000600082015250565b60006120d460198361208d565b91506120df8261209e565b602082019050919050565b60006020820190508181036000830152612103816120c7565b9050919050565b60008151905061211981611d2d565b92915050565b60006020828403121561213557612134611cc0565b5b60006121438482850161210a565b91505092915050565b7f496e73756666696369656e742062616c616e63653a20544f4b454e2041000000600082015250565b6000612182601d8361208d565b915061218d8261214c565b602082019050919050565b600060208201905081810360008301526121b181612175565b9050919050565b7f496e73756666696369656e742062616c616e63653a20544f4b454e2042000000600082015250565b60006121ee601d8361208d565b91506121f9826121b8565b602082019050919050565b6000602082019050818103600083015261221d816121e1565b9050919050565b7f536c6970706167653a204f55545f4f465f4c494d495453000000000000000000600082015250565b600061225a60178361208d565b915061226582612224565b602082019050919050565b600060208201905081810360008301526122898161224d565b9050919050565b60006040820190506122a56000830185611ec7565b6122b26020830184611f31565b9392505050565b6000815190506122c881611d65565b92915050565b6000602082840312156122e4576122e3611cc0565b5b60006122f2848285016122b9565b91505092915050565b7f4e487b7100000000000000000000000000000000000000000000000000000000600052601160045260246000fd5b600061233582611d23565b915061234083611d23565b925082820261234e81611d23565b91508282048414831517612365576123646122fb565b5b5092915050565b7f4e487b7100000000000000000000000000000000000000000000000000000000600052601260045260246000fd5b60006123a682611d23565b91506123b183611d23565b9250826123c1576123c061236c565b5b828204905092915050565b60006123d782611d23565b91506123e283611d23565b92508282039050818111156123fa576123f96122fb565b5b92915050565b600061010082019050612416600083018b611ec7565b612423602083018a611ec7565b6124306040830189611f31565b61243d6060830188611f31565b61244a6080830187611f31565b61245760a0830186611f31565b61246460c0830185611ec7565b61247160e0830184611f31565b9998505050505050505050565b60008060006060848603121561249757612496611cc0565b5b60006124a58682870161210a565b93505060206124b68682870161210a565b92505060406124c78682870161210a565b9150509250925092565b6000815190506124e081611cf7565b92915050565b6000602082840312156124fc576124fb611cc0565b5b600061250a848285016124d1565b91505092915050565b60006040820190506125286000830185611ec7565b6125356020830184611ec7565b9392505050565b60006060820190506125516000830186611f31565b61255e6020830185611f31565b61256b6040830184611ec7565b949350505050565b60006040820190506125886000830185611f31565b6125956020830184611f31565b9392505050565b7f494e56414c494420414444524553530000000000000000000000000000000000600082015250565b60006125d2600f8361208d565b91506125dd8261259c565b602082019050919050565b60006020820190508181036000830152612601816125c5565b9050919050565b6000819050919050565b600061262d61262861262384612608565b611f5b565b611d23565b9050919050565b61263d81612612565b82525050565b600060e082019050612658600083018a611ec7565b6126656020830189611ec7565b6126726040830188611f31565b61267f6060830187612634565b61268c6080830186612634565b61269960a0830185611ec7565b6126a660c0830184611f31565b98975050505050505050565b600080604083850312156126c9576126c8611cc0565b5b60006126d78582860161210a565b92505060206126e88582860161210a565b9150509250929050565b60006040820190506127076000830185611f31565b6127146020830184611ec7565b9392505050565b600080fd5b6000601f19601f8301169050919050565b7f4e487b7100000000000000000000000000000000000000000000000000000000600052604160045260246000fd5b61276982612720565b810181811067ffffffffffffffff8211171561278857612787612731565b5b80604052505050565b600061279b611cb6565b90506127a78282612760565b919050565b60006127b782611ce5565b9050919050565b6127c7816127ac565b81146127d257600080fd5b50565b6000815190506127e4816127be565b92915050565b600060808284031215612800576127ff61271b565b5b61280a6080612791565b9050600061281a848285016127d5565b600083015250602061282e8482850161210a565b60208301525060406128428482850161210a565b60408301525060606128568482850161210a565b60608301525092915050565b60006080828403121561287857612877611cc0565b5b6000612886848285016127ea565b91505092915050565b600061289a82611d23565b91507fffffffffffffffffffffffffffffffffffffffffffffffffffffffffffffffff82036128cc576128cb6122fb565b5b600182019050919050565b7f4572726f723a20506f6f6c206e6f7420666f756e6420696e204d61737465726360008201527f6865662e00000000000000000000000000000000000000000000000000000000602082015250565b600061293360248361208d565b915061293e826128d7565b604082019050919050565b6000602082019050818103600083015261296281612926565b9050919050565b7f4f776e61626c653a206e6577206f776e657220697320746865207a65726f206160008201527f6464726573730000000000000000000000000000000000000000000000000000602082015250565b60006129c560268361208d565b91506129d082612969565b604082019050919050565b600060208201905081810360008301526129f4816129b8565b9050919050565b7f496e73756666696369656e742062616c616e63653a20434f4e54524143540000600082015250565b6000612a31601e8361208d565b9150612a3c826129fb565b602082019050919050565b60006020820190508181036000830152612a6081612a24565b9050919050565b6000604082019050612a7c6000830185611f31565b612a896020830184612634565b9392505050565b7f4f776e61626c653a2063616c6c6572206973206e6f7420746865206f776e6572600082015250565b6000612ac660208361208d565b9150612ad182612a90565b602082019050919050565b60006020820190508181036000830152612af581612ab9565b905091905056fea2646970667358221220748ccce21debb16b3406712b1b100fb403dc37d4cbab7afa93aa39a893c4611664736f6c63430008110033",
  "linkReferences": {},
  "deployedLinkReferences": {}
}